:100000000C94B0000C94D8000C94D8000C94D80038
:100010000C94D8000C94D8000C94D8000C94D80000
:100020000C94D8000C94D8000C94D8000C940A0EB0
:100030000C94D8000C94D8000C94D8000C94D800E0
:100040000C94680D0C94D8000C94D80D0C94B20D3F
:100050000C94D8000C94D8000C94D8000C94D800C0
:100060000C94490C0C94D8000000000023002600DA
:1000700029005741524E494E473A20436F6D6D75E6
:100080006E69636174696F6E206661696C75726513
:100090002C20697320746865204D465243353232F6
:1000A0002070726F7065726C7920636F6E6E65631D
:1000B0007465643F00203D2028756E6B6E6F776E0F
:1000C0002900203D20636F756E74657266656974E2
:1000D000206368697000203D2076322E3000203D7C
:1000E0002076312E3000203D2076302E3000203D0D
:1000F0002028636C6F6E6529004669726D776172A6
:10010000652056657273696F6E3A20307800000082
:100110000000240027002A0000000000250028001D
:100120002B00040404040404040402020202020278
:1001300003030303030301020408102040800102AB
:10014000040810200102040810200000000800022A
:100150000100000304070000000000000000C60EBC
:1001600011241FBECFEFD8E0DEBFCDBF12E0A0E06C
:10017000B1E0E0EAFCE202C005900D92A038B107C0
:10018000D9F724E0A0E8B2E001C01D92A034B20784
:10019000E1F710E0C0EBD0E004C02197FE010E941F
:1001A0004914CF3AD107C9F70E94720F0C944E162A
:1001B0000C9400008CBD9DBD08952091FB02260F7C
:1001C0003327331F21323105ECF420912103FC0148
:1001D00090E080E0243069F082E00895A091FB0275
:1001E0002191AC0147525D4FA40FB52FB11D2C9347
:1001F0000196861798F38091FB02680F6093FB02CB
:1002000080E0089581E00895089508950895E091AB
:10021000D0028091CF02E81730F4F0E0E155FD4FB5
:10022000808190E008958FEF9FEF08959091D00224
:100230008091CF022FEF3FEF981748F4E92FF0E0BD
:10024000E155FD4F208130E09F5F9093D002C901BE
:1002500008958091CF029091D002891B990B089547
:10026000CF92DF92EF92FF920F931F93CF93DF9382
:100270007C01CB018A012091AE02222389F0EB019F
:100280006B01C40ED51ECC15DD0569F06991D7014F
:10029000ED91FC910190F081E02DC7010995F3CF1C
:1002A000642F0E94DD00C801DF91CF911F910F9153
:1002B000FF90EF90DF90CF900895CF93DF931F9240
:1002C000CDB7DEB769832091AE022223F9F02091E9
:1002D000D102203258F021E030E0FC013383228348
:1002E00090E080E00F90DF91CF9108958091D2024D
:1002F000E82FF0E0E257FD4F998190838F5F809364
:10030000D2028093D10281E090E0ECCF61E0CE0197
:1003100001960E94DD00F7CF833081F028F4813010
:1003200099F08230A9F008958730A9F08830C9F09B
:100330008430B1F4809180008F7D03C08091800073
:100340008F7780938000089584B58F7784BD08955A
:1003500084B58F7DFBCF8091B0008F778093B00004
:1003600008958091B0008F7DF9CF1F93CF93DF93D5
:10037000282F30E0F901E65BFE4F8491F901EA5C39
:10038000FE4FD491F901EE5DFE4FC491CC23A9F04C
:10039000162F81110E948C01EC2FF0E0EE0FFF1F51
:1003A000E85EFE4FA591B4918FB7F894EC911111CE
:1003B00008C0D095DE23DC938FBFDF91CF911F91D2
:1003C0000895DE2BF8CF1092210381E08093230360
:1003D0001092220361E082E10E94B50161E083E1B5
:1003E0000E94B501E9EBF0E080818E7F80838081FF
:1003F0008D7F808388E48093B80085E48093BC007F
:100400000895CF93DF9391E09093D8028823B9F0B9
:10041000C091B800D091BA008091BC008A7B8093D3
:10042000BC0060E082E10E94B50160E083E10E94CF
:10043000B5010E94E301D093BA00C093B800DF91E8
:10044000CF910895CF93DF9390E0FC01EA5CFE4FDB
:1004500024918E5D9E4FFC0184918823D1F090E021
:10046000880F991FFC01E25FFE4FA591B491FC013A
:10047000E85EFE4FC591D49161110EC09FB7F8940C
:100480008C91E22FE0958E238C932881E223E883E0
:100490009FBFDF91CF9108958FB7F894EC91E22B35
:1004A000EC938FBFF6CF3FB7F89480918A0290917A
:1004B0008B02A0918C02B0918D0226B5A89B05C03D
:1004C0002F3F19F00196A11DB11D3FBFBA2FA92FD3
:1004D000982F8827BC01CD01620F711D811D911DD0
:1004E00042E0660F771F881F991F4A95D1F708953C
:1004F0008F929F92AF92BF92CF92DF92EF92FF9234
:100500004B015C010E9453026B017C010E9453026B
:100510006C197D098E099F09683E7340810591051C
:10052000A8F321E0821A9108A108B10888EEC80E4C
:1005300083E0D81EE11CF11C81149104A104B104D4
:1005400029F7FF90EF90DF90CF90BF90AF909F90F2
:100550008F900895AF92BF92CF92DF92EF92FF9269
:100560000F931F93CF93DF936C017B018B01040FDB
:10057000151FEB015E01AE18BF08C017D10759F077
:100580006991D601ED91FC910190F081E02DC601B9
:100590000995892B79F7C501DF91CF911F910F91B3
:1005A000FF90EF90DF90CF90BF90AF900895FC0147
:1005B000538D448D252F30E0842F90E0821B930BC8
:1005C000541710F0CF96089501970895FC01918D6E
:1005D000828D981761F0A28DAE0FBF2FB11D5D9671
:1005E0008C91928D9F5F9F73928F90E008958FEF13
:1005F0009FEF0895FC01918D828D981731F0828DC7
:10060000E80FF11D858D90E008958FEF9FEF08951D
:10061000FC01918D228D892F90E0805C9F4F821B81
:1006200091098F739927089587E593E00E94080345
:1006300021E0892B09F420E0822F089580E090E0EA
:10064000892B29F00E94140381110C940000089555
:10065000FC01A48DA80FB92FB11DA35ABF4F2C9137
:10066000848D90E001968F739927848FA689B7892E
:100670002C93A089B1898C91837080648C93938D25
:10068000848D981306C00288F389E02D80818F7DC8
:1006900080830895EF92FF920F931F93CF93DF9380
:1006A000EC0181E0888F9B8D8C8D98131AC0E889AE
:1006B000F989808185FF15C09FB7F894EE89FF897D
:1006C0006083E889F98980818370806480839FBF1B
:1006D00081E090E0DF91CF911F910F91FF90EF901B
:1006E0000895F62E0B8D10E00F5F1F4F0F7311272B
:1006F000E02E8C8D8E110CC00FB607FCFACFE88966
:10070000F989808185FFF5CFCE010E942803F1CFC2
:10071000EB8DEC0FFD2FF11DE35AFF4FF0829FB7D9
:10072000F8940B8FEA89FB8980818062CFCF0F9389
:100730001F93CF93DF938C01D0E0C0E0F801EC0F62
:10074000FD1F6491662341F087E593E00E944A0310
:10075000892B11F02196F2CFCE01DF91CF911F911D
:100760000F910895CF93DF93EC01888D8823B9F022
:10077000AA89BB89E889F9898C9185FD03C08081AC
:1007800086FD0DC00FB607FCF7CF8C9185FFF2CF29
:10079000808185FFEDCFCE010E942803E9CFDF9154
:1007A000CF910895BC016E5F7F4FDC01ED91FC910C
:1007B0000190F081E02D40E0099591E0811190E0F9
:1007C000892F089508958EBD00000DB407FEFDCF5A
:1007D0008EB50895DF92EF92FF920F931F93CF9300
:1007E000DF937C01062FD42E152F80E590E00E9428
:1007F000DA0060E0F70186850E94B50182E10E947F
:10080000E303CD2DD12F0C0F1D2F111DC017D107C4
:1008100021F089910E94E303F9CF61E0F701868519
:10082000DF91CF911F910F91FF90EF90DF900C948B
:10083000B5011F93CF93DF93EC01162F80E590E075
:100840000E94DA0060E08E850E94B501812F8068E9
:100850000E94E30380E00E94E303182F61E08E858D
:100860000E94B501812FDF91CF911F9108950F93C1
:100870001F93CF93DF93EC01062F142F80E590E0B8
:100880000E94DA0060E08E850E94B501802F0E94F0
:10089000E303812F0E94E30361E08E85DF91CF9116
:1008A0001F910F910C94B501CF92DF92EF92FF92BE
:1008B0000F931F93CF93DF93EC016B01F42E89010B
:1008C00040E062E00E94370444E06AE0CE010E940A
:1008D000370440E864E1CE010E943704A6016F2D81
:1008E000CE010E94EA0343E062E0CE010E94370499
:1008F0008FB7F894C0904703D0904803E090490325
:10090000F0904A038FBF89E5C80ED11CE11CF11C91
:100910006AE0CE010E94190482FF1BC040E062E041
:10092000CE010E94370464E4CE010E941904F8014C
:10093000808362E4CE010E941904F801818380E083
:10094000DF91CF911F910F91FF90EF90DF90CF90AB
:1009500008952FB7F8948091470390914803A09190
:100960004903B0914A032FBF8C159D05AE05BF0505
:1009700078F283E0E5CF0F931F93CF93DF938C0141
:10098000D62FC42F0E941904C0954C2F48236D2FD9
:10099000C801DF91CF911F910F910C9437048F9272
:1009A0009F92AF92BF92FF920F931F93CF93DF93CB
:1009B000FC01F0808BE08F1508F44AC0828108E5C5
:1009C00012E0081B110987FD1395000F111F000F7E
:1009D000111F8181C8E8D0E0C81BD10987FDD395DC
:1009E000CC0FDD1FCC0FDD1F4E010D2E000CAA0811
:1009F000BB089801012E000C440B550B281939092E
:100A00004A095B09DB010E94CD1324EB30E040E092
:100A100050E00E94A313820E931EA41EB51E8C16D6
:100A20009D062CF0E801801691060CF4E401229753
:100A3000CC0FDD1F2FB7F8948F2D90E0FC01EE0F47
:100A4000FF1FE80FF91FEC50FC4FD283C1832FBF6B
:100A5000DF91CF911F910F91FF90BF90AF909F902A
:100A60008F9008951F93CF93DF93EC01162F888109
:100A70008C3008F04EC061E0812F0E9422028881F4
:100A8000282F30E0F901EE0FFF1FE20FF31FEC50AB
:100A9000FC4F1F736081607C612B608319821A8216
:100AA0002CE0622F0E943D14829FB001112430E09F
:100AB00020E0AB01420F531FFA01EE0FFF1FE40FBE
:100AC000F51FEC50FC4F908196FD16C02F5F3F4FF5
:100AD0002C30310571F781110FC01092800082E037
:100AE000809381001092850010928400B19A8091C9
:100AF0006F00826080936F00E8818E2F90E0FC0190
:100B0000EE0FFF1FE80FF91FEC50FC4F808180644F
:100B100080838881DF91CF911F910895CF92DF92DA
:100B2000EF92FF920F931F93CF93DF93FC01C48149
:100B300021E02093AE02C09380021092D202109264
:100B4000D1028485682B8BE493E00E945D01D091F3
:100B5000D102D13208F092C00E9453026B017C0195
:100B600080912103811165C082E08093210381E09F
:100B7000809323038FEF8093200310924503D0933B
:100B80004403AEE8B2E0E4E2F3E080E0D81385C0CD
:100B90001092460380914603CC0FC82BC0934603A6
:100BA00080912203813009F07CC0109222030E94C0
:100BB00053026B017C01809146038093BB008091BE
:100BC000D4029091D502A091D602B091D702892B80
:100BD0008A2B8B2B99F00E9453020091D402109122
:100BE000D5022091D6023091D7026C197D098E0969
:100BF0009F090617170728073907E0F18091BC0005
:100C000083FDD9CF85EC8093BC000E9453026B0119
:100C10007C0180912103823009F445C0809120033A
:100C20008F3F61F180912003803241F18091200358
:100C300025C08091D4029091D502A091D602B091A6
:100C4000D702892B8A2B8B2B09F48ACF0E9453025F
:100C50000091D4021091D5022091D6023091D70292
:100C60006C197D098E099F09061717072807390790
:100C700008F076CF8091D3020E9401021092D20236
:100C80001092D1021092AE02DF91CF911F910F917D
:100C9000FF90EF90DF90CF9008959D9191938F5F9B
:100CA00075CF85EEB0CF8091D4029091D502A091FE
:100CB000D602B091D702892B8A2B8B2B09F4A9CFAE
:100CC0000E9453020091D4021091D5022091D602C5
:100CD0003091D7026C197D098E099F0906171707F5
:100CE0002807390708F095CFC5CF089590E080E038
:100CF00008954F925F926F927F928F929F92AF92E0
:100D0000BF92CF92EF92FF920F931F93CF93DF93F7
:100D1000EC014B01642E590180E0E114F10411F063
:100D2000F70180817C2C729490EF7922780E40E05C
:100D300062E0CE010E9437044FE768E0CE010E94D6
:100D4000370440E864E1CE010E943704A401662D17
:100D5000CE010E94EA03472D6AE1CE010E943704CA
:100D60004CE062E0CE010E9437046AE1CE010E94AD
:100D70001904482F40686AE1CE010E9437048FB7FA
:100D8000F894409047035090480360904903709056
:100D90004A038FBFF4E24F0E511C611C711C68E0C6
:100DA000CE010E941904982F907309F080C080FF33
:100DB00011C083E0DF91CF911F910F91FF90EF90D1
:100DC000CF90BF90AF909F908F907F906F905F90EB
:100DD0004F9008952FB7F89480914703909148035E
:100DE000A0914903B0914A032FBF84159505A6052C
:100DF000B705A8F2DECFA114B10409F451C0011562
:100E0000110509F44DC064E1CE010E941904982E29
:100E1000F8018081891508F448C090829920B1F1C9
:100E200080E590E00E94DA0060E08E850E94B501C6
:100E30009A9482E90E94E303CC2099F00FEF10E02E
:100E400001C0000FCA94EAF782E90E94E303902FE1
:100E50009095F501208192238023982B9083CC24B8
:100E6000C394AC0CB11CC91440F482E90E94E303A2
:100E7000F50181935F01C394F6CF80E00E94E30304
:100E8000F501808361E08E850E94B50168E1CE01A5
:100E90000E941904E114F10419F08770F7018083AE
:100EA00082E083FC87CF80E085CF84E083CF6CE055
:100EB000CE010E941904882E837109F49CCF81E031
:100EC00079CFCF92DF92EF92FF920F931F93CF9340
:100ED000DF9300D000D0CDB7DEB780E589831A82DA
:100EE0009E012D5F3F4F42E0BE016F5F7F4F8FE15C
:100EF00094E00E945404D82E811116C0C12CF12C0C
:100F0000E12C10E000E030E020E044E0BE016F5F43
:100F10007F4F8FE194E00E947906833029F0D82E2C
:100F2000811102C0DD24D3948D2D0F900F900F906E
:100F30000F90DF91CF911F910F91FF90EF90DF9075
:100F4000CF900895AF92BF92CF92EF92FF920F93FE
:100F50001F93CF93DF9300D000D01F92CDB7DEB7A1
:100F60005C0182E08D8340E064E2C5010E943704A9
:100F700040E066E2C5010E94370446E268E4C5012C
:100F80000E94370486E28B838D818230A0F140E895
:100F90006CE1C5010E94BB0487E08C83C12CCE01AB
:100FA00004967C018E010B5F1F4F9E012F5F3F4F08
:100FB00041E0BE016D5F7F4FC5010E947906982F09
:100FC000811116C08D818230B1F48C81811113C0E2
:100FD00081E00F900F900F900F900F90DF91CF91C5
:100FE0001F910F91FF90EF90CF90BF90AF90089519
:100FF00081E0923071F380E0ECCF2F923F924F92DC
:101000005F926F927F928F929F92AF92BF92CF9298
:10101000DF92EF92FF920F931F93CF93DF93CDB7A1
:10102000DEB72C970FB6F894DEBF0FBECDBF16E02B
:10103000413508F044C1342E5B014C0140E86CE1BD
:101040000E94BB0483E98983332029F081E0F50104
:101050009081953008F480E044244394512C952DE0
:10106000990F990F990FD32CD91AD7FCD12C32E0B4
:10107000882319F098E89B8333E021E09D2D977039
:1010800009F420E09D2D959595959595290FC9F02A
:1010900094E0811193E0291708F4922FE52DF0E0F8
:1010A0003196EA0DFB1D232F4191A1E0B0E0AC0F7A
:1010B000BD1FA20FB11D4C932F5F422F431B491739
:1010C00098F3882311F0F8E0DF0E8FE18D150CF016
:1010D00081C090E79A838B819C8189279D81892794
:1010E0009E8189278F839E01285F3F4F47E0BE0185
:1010F0006F5F7F4FC4010E945404182F8111DFC01D
:101100001A86E3E0EB87DC86CE0107963C0129E0F6
:10111000222ECA844C2D4295407F4C0D6AE1C401B9
:101120000E943704FE013A967F018E01055F1F4F32
:101130009301422DBE016F5F7F4FC4010E9479066B
:10114000182F823009F065C06CE1C4010E941904B7
:1011500085FDB5C08F7109F480E2282F30E04D2D58
:10116000DD0C550B421753070CF09DC0D82EE82F0D
:10117000E595E595E595EF5F982F977081E009F487
:1011800080E0E80F81E090E08C0F9D1F8E0F911D95
:10119000FC01215031092770332781E090E002C023
:1011A000880F991F2A95E2F79C018081822B80830A
:1011B0008CCF85E98983332031F081E0F50190817E
:1011C000983008F04CCF80E04ACF87E9898336E039
:1011D000532EF9CF9D2D97709A878D2D85958595E6
:1011E00085958E5F282F2295207F290F2A8321E065
:1011F000911101C020E0222E280E66246394712CE8
:101200006C0E7D1E680E711C99E0981B9B87DC8616
:1012100080CF811154C080E2D82E9C8590320CF48E
:1012200058CF8B81883809F040C083E093E0E52DEA
:10123000F0E03196EA0DFB1D980FA1E0B0E0AC0F95
:10124000BD1FA80FB11D2C9121938F5F8913F5CF7E
:101250005B84E3E05E124DC08A8581114AC09E0125
:101260002D5F3F4F41E0B301C4010E945404182F89
:10127000811125C09B81F301818198133CC09C8121
:101280008281981338C0808182FF12C04394F2E0BB
:101290004F1609F48ECF83E0481609F496CF91E0FB
:1012A000491609F4CFCE15E00AC082E094E0BFCF22
:1012B000F5018387842D880F480E43944082812F47
:1012C0002C960FB6F894DEBF0FBECDBFDF91CF9145
:1012D0001F910F91FF90EF90DF90CF90BF90AF9054
:1012E0009F908F907F906F905F904F903F902F9046
:1012F000089511E0E4CF17E0E2CF0F931F93CF934F
:101300008C01C62F0E948E056C2F6460C8010E945C
:101310008E056C2F6B7FC8010E948E0583EC90E0D8
:101320000197F1F7CF911F910F9108950F931F939C
:10133000CF93DF938C01D62FC42F607F642B0E9444
:101340007D0980E1D89FB00111246C2BC801DF9189
:10135000CF911F910F910C947D0941E00E94960955
:1013600081E090E00895CF93DF93CDB7DEB7289763
:101370000FB6F894DEBF0FBECDBF98E0E1E2F1E01A
:10138000DE01119601900D929A95E1F79091370444
:10139000961708F46FEF262F30E0220F331F41E03D
:1013A00050E04C0F5D1F240F351FF9016081680F5D
:1013B000606840E08FE294E028960FB6F894DEBFB4
:1013C0000FBECDBFDF91CF910C94960940E061E054
:1013D0008FE294E00E9496098BE39FE10197F1F779
:1013E00080913804882321F060E080E00C94B309F8
:1013F0000895FB0101900020E9F73197AF01461BEA
:10140000570BDC01ED91FC910280F381E02D0994F2
:10141000CF93DF930E949703EC0163E671E087E5C9
:1014200093E00E94F9098C0F9D1FDF91CF910895E1
:101430008F929F92AF92BF92EF92FF920F931F9362
:10144000CF93DF93CDB7DEB7A1970FB6F894DEBF89
:101450000FBECDBF7C01FA01CB0119A2223008F4E6
:101460002AE08E010F5D1F4F822E912CB12CA12CF2
:10147000BF01A50194010E940C14F901CA016A3050
:101480000CF5605DD8016E938D01232B242B252B49
:1014900079F790E080E0109721F0BD01C7010E942C
:1014A000F909A1960FB6F894DEBF0FBECDBFDF914C
:1014B000CF911F910F91FF90EF90BF90AF909F90B1
:1014C0008F900895695CDECFCF92DF92EF92FF920A
:1014D0006C01990FEE08FF08F7FE18C041E06DE2BD
:1014E0008FE294E00E94960944275527BA014C19CF
:1014F0005D096E097F092AE08FE294E00E94180AD4
:101500000196FF90EF90DF90CF9008952AE0B70109
:10151000A6018FE294E0FF90EF90DF90CF900C94C3
:10152000180ACF93DF93D0E0C0E0009731F0BC0100
:1015300087E593E00E94F909EC0163E671E087E535
:1015400093E00E94F9098C0F9D1FDF91CF910895C0
:10155000CF93DF93FC01448155816081718187E5E0
:1015600093E00E94AA02EC0163E671E087E593E054
:101570000E94F9098C0F9D1FDF91CF91089561158D
:10158000710511F00C94F90990E080E008950E9433
:10159000E60960E082E00E94B30966E671E08FE24E
:1015A00094E00E94BF0A61E080E00E94B30965E711
:1015B00071E08FE294E00E94BF0A809183029091D3
:1015C00084020E94640A6CE771E08FE294E00E945A
:1015D000BF0A88E090E00C94640A85ED8093BC001B
:1015E0008091D4029091D502A091D602B091D702F9
:1015F0000796A11DB11D23E0B695A79597958795F0
:101600002A95D1F72091BC0024FD03C0109221033C
:1016100008954091D4025091D5026091D602709104
:10162000D702452B462B472B69F30097A105B1053F
:1016300041F02AE22A95F1F700C00197A109B1090A
:10164000E1CF8091D3020C9401020F931F93CF93AB
:10165000DF93EC0188819981009759F02A813B81C1
:101660002617370730F081E0DF91CF911F910F915E
:1016700008958B016F5F7F4F0E947415009759F09A
:10168000998388831B830A832C813D81232B59F7FF
:10169000FC011082E8CF80E0E7CFEF92FF920F933A
:1016A0001F93CF93DF936115710541F480E0DF91C3
:1016B000CF911F910F91FF90EF9008954115510523
:1016C000B1F07B01EC010C811D81040F151FB801E5
:1016D0000E94250B882351F3288139818C819D81BB
:1016E000B701820F931F0E9447161D830C8381E070
:1016F000DECFFB0144815581608171810C944D0BDB
:10170000CF93DF93EC0188819981009711F00E94BB
:10171000EB14198218821D821C821B821A82DF91AF
:10172000CF910895CF92DF92EF92FF920F931F9384
:10173000CF93DF93CDB7DEB729970FB6F894DEBF0E
:101740000FBECDBF8C01862FF8011182108213824B
:1017500012821582148240E19E012F5F3F4F690182
:10176000B90190E00E947913F60101900020E9F799
:1017700031977F01EC18FD08B701C8010E94250BC5
:10178000811112C0C8010E94800B29960FB6F894EF
:10179000DEBF0FBECDBFDF91CF911F910F91FF90A4
:1017A000EF90DF90CF900895F801F582E482B601C2
:1017B000808191810E944716E8CFCF93DF93EC019F
:1017C000FB0101900020E9F73197AF01461B570B51
:1017D0000E944D0B811103C0CE010E94800BCE01EF
:1017E000DF91CF910895CF93DF93EC01FB0144810A
:1017F0005581608171810E944D0B811103C0CE0122
:101800000E94800BCE01DF91CF910895EF92FF925D
:101810000F931F93CF93DF93EC01198218821B82E1
:101820001A821D821C826115710521F18B01FB0159
:1018300001900020E9F731977F01E61AF70AB70116
:101840000E94250B811109C0CE01DF91CF911F911C
:101850000F91FF90EF900C94800BFD82EC82B80109
:1018600088819981DF91CF911F910F91FF90EF9027
:101870000C944716DF91CF911F910F91FF90EF903D
:101880000895FC0180819181009711F00C94EB1474
:1018900008951F920F920FB60F9211242F933F932A
:1018A0004F935F936F937F938F939F93AF93BF9368
:1018B000EF93FF938091B900887F803609F44AC086
:1018C000F0F5883209F4A7C018F5803109F49BC0FF
:1018D000B8F4882309F4F9C0883009F494C0FF9162
:1018E000EF91BF91AF919F918F917F916F915F9198
:1018F0004F913F912F910F900FBE0F901F90189511
:10190000883109F488C0803251F78093200314C0D5
:10191000803409F49DC040F48033B9F38833F9F67C
:101920008093200385ECB0C0803509F485C08835EC
:1019300009F496C0883499F60E94ED0AD0CF883910
:1019400009F48CC038F5883729F050F4883611F046
:10195000803729F683E08093210310921F0357C03C
:10196000883809F47BC0803919F0803809F0B7CF86
:1019700080911F03803208F071C0E0911F0381E065
:101980008E0F80931F038091BB00F0E0E150FD4F6C
:1019900080833DC0803B39F0E0F4803A09F479C09F
:1019A000883A09F09CCF84E0809321031092FC02D6
:1019B0001092FB02E091F902F091FA0209958091F0
:1019C000FB0281110FC081E08093FB021092D902CB
:1019D00009C0803C09F4A6CF883C09F4A3CF883B1A
:1019E00009F07DCFE091FC0281E08E0F8093FC0234
:1019F000F0E0E752FD4F80818093BB009091FC02A4
:101A00008091FB0229C0809146038093BB0085EC46
:101A10008093BC0064CF9091450380914403981754
:101A200058F5E091450381E08E0F80934503F0E087
:101A3000EC5DFC4F8081E9CFE091450381E08E0FA2
:101A4000809345038091BB00F0E0EC5DFC4F808308
:101A500090914503809144039817C8F285E8D8CF48
:101A6000E091450381E08E0F809345038091BB0098
:101A7000F0E0EC5DFC4F80838091230381115CCF0B
:101A800081E08093220384EA8093BC0010922103BA
:101A900026CF85EC8093BC001092210380911F0318
:101AA000803230F4E0911F03F0E0E150FD4F1082EE
:101AB00060911F0370E0E091FD02F091FE028FEF54
:101AC00092E0099510921F030ACF1092200334CFA1
:101AD0001F920F920FB60F9211242F933F938F9363
:101AE0009F93AF93BF938091470390914803A09138
:101AF0004903B0914A033091890223E0230F2D3727
:101B000058F50196A11DB11D2093890280934703CA
:101B100090934803A0934903B0934A0380918A02AB
:101B200090918B02A0918C02B0918D020196A11D23
:101B3000B11D80938A0290938B02A0938C02B09384
:101B40008D02BF91AF919F918F913F912F910F90F7
:101B50000FBE0F901F90189526E8230F0296A11D27
:101B6000B11DD2CF1F920F920FB60F9211242F9357
:101B70003F934F935F936F937F938F939F93AF9315
:101B8000BF93EF93FF9387E593E00E942803FF91B3
:101B9000EF91BF91AF919F918F917F916F915F91E5
:101BA0004F913F912F910F900FBE0F901F9018955E
:101BB0001F920F920FB60F9211242F938F939F9322
:101BC000EF93FF93E0916703F09168038081E091C8
:101BD0006D03F0916E0382FD1BC0908180917003B4
:101BE0008F5F8F7320917103821741F0E091700332
:101BF000F0E0E95AFC4F958F80937003FF91EF91CD
:101C00009F918F912F910F900FBE0F901F9018955D
:101C10008081F4CF1F920F920FB60F9211242F9351
:101C20003F934F935F936F937F938F939F93AF9364
:101C3000BF93CF93DF93EF93FF9380918102C09185
:101C40001804D0E087FF24C0109285001092840011
:101C5000809181028F5F8093810280918102082EA2
:101C6000000C990B8C179D0724F4809181028C3015
:101C7000C4F18091840090918500049680349C4941
:101C800008F47AC08091840090918500049676C013
:101C900080918102082E000C990B8C179D07C4F6C9
:101CA000E09181028E2FEE0F990BFC01EE0FFF1FCA
:101CB000E80FF91FEC50FC4F808186FFC9CFE091FF
:101CC00081028E2FEE0F990BFC01EE0FFF1FE80F24
:101CD000F91FEC50FC4F808160E08F730E94B501CA
:101CE000B7CF2091840030918500E09181028E2F42
:101CF000EE0F990BFC01EE0FFF1FE80FF91FEC50E0
:101D0000FC4F81819281820F931F90938900809371
:101D10008800E09181028E2FEE0F990BFC01EE0FEF
:101D2000FF1FE80FF91FEC50FC4F808186FF11C0A8
:101D3000E09181028E2FEE0F990BFC01EE0FFF1F39
:101D4000E80FF91FEC50FC4F808161E08F730E9417
:101D5000B501FF91EF91DF91CF91BF91AF919F912D
:101D60008F917F916F915F914F913F912F910F9044
:101D70000FBE0F901F90189580E49CE99093890006
:101D8000809388008FEF80938102E3CF10924E03FF
:101D900010924D0388EE93E0A0E0B0E080934F03F3
:101DA00090935003A0935103B09352032DE231E07E
:101DB00030934C0320934B0310925A031092590313
:101DC00080935B0390935C03A0935D03B0935E03E9
:101DD0008FE391E0909358038093570385EC90E054
:101DE000909364038093630384EC90E09093660384
:101DF0008093650380EC90E0909368038093670381
:101E000081EC90E090936A038093690382EC90E008
:101E100090936C0380936B0386EC90E090936E0339
:101E200080936D03109270031092710310927203ED
:101E30001092730310923204109231048BE591E0FA
:101E40009093300480932F041092380487E280939B
:101E5000330480E18093390482E080933A04109245
:101E60003B0481E591E09093200480931F048AE075
:101E700080932D0489E080932E04809118048C3087
:101E800048F591E0980F9093180480931C0490E01B
:101E9000FC01EE0FFF1FE80FF91FEC50FC4F88EB21
:101EA0009BE092838183809118048C30B8F491E098
:101EB000980F909318048093190490E0FC01EE0FA2
:101EC000FF1FE80FF91FEC50FC4F88EB9BE092835B
:101ED000818308958FEF80931C04E5CF8FEF80936B
:101EE00019040895CF93DF93CDB7DEB768970FB687
:101EF000F894DEBF0FBECDBF789484B5826084BDF8
:101F000084B5816084BD85B5826085BD85B58160FD
:101F100085BD80916E00816080936E00109281007B
:101F20008091810082608093810080918100816036
:101F300080938100809180008160809380008091F7
:101F4000B10084608093B1008091B0008160809383
:101F5000B00080917A00846080937A0080917A004A
:101F6000826080937A0080917A00816080937A0009
:101F700080917A00806880937A001092C100E0918D
:101F80006703F091680382E08083E0916303F0913E
:101F900064031082E0916503F09166038FEC808307
:101FA00010926F03E0916B03F0916C0386E08083E5
:101FB000E0916903F0916A03808180618083E09100
:101FC0006903F0916A03808188608083E0916903EE
:101FD000F0916A03808180688083E0916903F091C9
:101FE0006A0380818F7D80831092D0021092CF028D
:101FF0001092D2021092D1020E94E30184E091E09B
:102000009093FA028093F90285E091E09093FE02AA
:102010008093FD021092340480913A04823018F0CB
:1020200098E0909334048093370462E370E080E09A
:1020300090E00E94780260913B048FE294E00E945D
:102040008E0568EE73E080E090E00E94780260E325
:102050008FE294E00E947D090BE416E4C801019729
:10206000F1F760E38FE294E00E947D09C8010197D7
:10207000F1F760E38FE294E00E947D0983E592E04E
:102080000197F1F760E28FE294E00E947D09609190
:102090003404606240E08FE294E00E94960984E09C
:1020A0008093350440E06CE08FE294E00E94960952
:1020B0000E94E60982E08093360440E066E08FE209
:1020C00094E00E94960940E062E08FE294E00E9472
:1020D00096098BE39FE10197F1F788E080933B0439
:1020E00060E08FE294E00E948E051FB7F894809123
:1020F0008202811127C0ECE2F1E08491E0E4F1E09A
:102100009491E82FF0E0EE0FFF1FE25FFE4FA591E4
:10211000B491EC91E92321F461E08AE00E94B501D9
:1021200061E08AE00E9422028CB580618CBD8CB592
:1021300080648CBD61E08DE00E94220261E08BE052
:102140000E942202809182028F5F809382021FBFD1
:1021500061E080912D040E94220261E080912D04B3
:102160000E94B50180912E048F3F09F4C4C060E045
:102170000E94220220912E0430E0F901E65BFE4F1E
:102180008491F901EA5CFE4F0491F901EE5DFE4F86
:1021900014911111A1C061E080912E040E942202CD
:1021A00060E080912E040E94B50183E090E00197E9
:1021B000F1F761E080912E040E94B50162E370E0C6
:1021C00080E090E00E94780240E064E28FE194E0D9
:1021D0000E94370440E066E28FE194E00E943704F9
:1021E00046E268E48FE194E00E94370440E864E549
:1021F0008FE194E00E94370449EA66E58FE194E0BC
:102200000E94370443E068E58FE194E00E943704C0
:1022100048EE6AE58FE194E00E94370440E46AE208
:102220008FE194E00E9437044DE362E28FE194E095
:102230000E94370468E28FE194E00E941904982F0D
:102240009370933039F0482F436068E28FE194E057
:102250000E94370462E070E08CE194E00E94320555
:1022600063E070E089E194E00E94320570E060E094
:102270008CE194E00E94CF0470E060E089E194E09A
:102280000E94CF0464E070E080E090E00E94780259
:102290006EE68FE194E00E941904182F89EF90E018
:1022A0000E949703412F50E070E060E020E187E555
:1022B00093E00E94180A86EE90E0103909F43AC0C3
:1022C00088F582EC90E01231A9F18EEE90E018389A
:1022D00089F185EB90E02EC081110E948C01E12FE5
:1022E000F0E0EE0FFF1FE859FF4FA591B491EC917C
:1022F0000E2309F450CF4FE062E08FE194E00E949A
:10230000370413E062E370E080E090E00E9478021E
:1023100062E08FE194E00E94190484FF55CF1150D0
:1023200089F752CF8EED90E0113921F086ED90E0E3
:10233000123979F60E94080A11501E3F20F082E7F8
:1023400090E00E94080A0E94C70A2BE1C22E21E0F9
:10235000D22E39E8A32E32E0B32E40E0E42E40E046
:10236000F42E8FE194E00E94A207882309F4F6C0BE
:102370008FE194E00E94D203882309F4EFC080919A
:102380002104843009F0A6C1809122048093850243
:102390008091230480938602809124048093870295
:1023A000809125048093880200E011E044E050E031
:1023B000B80185E892E00E943116892B39F0075F59
:1023C0001F4FC016D10691F710E000E00E94E60909
:1023D00060E080E00115110509F467C10E94B309AE
:1023E000F801648175818FE294E00E94BF0A6EE774
:1023F00071E087E593E00E94BF0AF801868197812A
:102400000E94910AF80120858091830290918402B4
:102410002111BFC0883091050CF0ACC021E02087AD
:102420000196909384028093830261E080E00E9491
:10243000B3096DE871E08FE294E00E94BF0A69E998
:1024400071E0CE0143960E94060C95E8892E92E039
:10245000992EF40181914F01803140F441E050E028
:1024600062EB71E0CE0143960E944D0BF40131976F
:102470006081CE0101960E94920BBE016F5F7F4F7B
:10248000CE0143960E94790BCE0101960E94410C29
:10249000A814B904F1F6F80166817781CE010D9692
:1024A0000E94060CF80164817581CE0107960E9496
:1024B000060C64EB71E0CE0101960E94060CBE0191
:1024C000695F7F4FCE0101960E94F30B6FEB71E0C5
:1024D0000E94DD0BBE01635F7F4F0E94F30B6BEC2C
:1024E00071E00E94DD0BBC01CE0143960E94790B86
:1024F000CE0101960E94410CCE0107960E94410C2C
:10250000CE010D960E94410CCE0143960E94A80A6E
:102510006AE570E08CE194E00E94CF0468EB7BE018
:1025200080E090E00E94780270E060E08CE194E04E
:102530000E94CF04CE0143960E94410C60ED77E0EB
:1025400080E090E00E9478020E94C70A0E94610722
:1025500048E060E18FE194E00E94BB04E114F104E3
:1025600009F4FFCE0E941403882309F4FACE0E94D6
:102570000000F7CE61E080E00E94B3096EEC71E0EC
:102580008FE294E00E94BF0A8EEC91E00E94910AD3
:10259000D5CF10860197909384028093830261E0E7
:1025A00080E00E94B3096BED71E08FE294E00E943D
:1025B000BF0A66EE71E0CE0143960E94060C85E8E4
:1025C000882E82E0982EF40181914F01803140F4F1
:1025D00041E050E062EB71E0CE0143960E944D0B6A
:1025E000F40131976081CE0101960E94920BBE01E9
:1025F0006F5F7F4FCE0143960E94790BCE0101960B
:102600000E94410CF9E88F16F2E09F06E1F6F8010E
:1026100066817781CE010D960E94060CF8016481D7
:102620007581CE0107960E94060C64EB71E0CE0125
:1026300001960E94060CBE01695F7F4FCE01019694
:102640000E94F30B6FEB71E00E94DD0BBE01635F34
:102650007F4F0E94F30B6BEC71E00E94DD0BBC011D
:10266000CE0143960E94790BCE0101960E94410C47
:10267000CE0107960E94410CCE010D960E94410C9E
:10268000CE0143960E94A80A6AE570E089E194E0D1
:102690000E94CF0468EB7BE080E090E00E9478022B
:1026A00070E060E089E194E043CF0E94B30960E00C
:1026B00072E08FE294E00E94BF0A61E080E00E9435
:1026C000B30960E372E08FE294E00E94BF0A8DE0FC
:1026D00092E05CCF0E94E60960E080E00E94B309CE
:1026E00068E272E08FE294E00E94BF0A85E392E024
:1026F0004DCFBB27FB015527AA27880F991FAA1F7B
:10270000A41710F0A41B83955051B9F7A05DAA330C
:1027100008F0A95DA193009779F7B111B1931192D7
:10272000CB010C949313DC01FC01672F719177238B
:10273000E1F7329704C07C916D9370836291AE177C
:10274000BF07C8F30895052E97FB1EF400940E945E
:10275000BA1357FD07D00E940C1407FC03D04EF4A7
:102760000C94BA1350954095309521953F4F4F4F9B
:102770005F4F089590958095709561957F4F8F4F2D
:102780009F4F08950E942E14A59F900DB49F900D09
:10279000A49F800D911D11240895B7FF0C94C213BE
:1027A0000E94C213821B930B08952F923F924F9267
:1027B0005F926F927F928F929F92AF92BF92CF92D1
:1027C000DF92EF92FF920F931F93CF93DF93CDB7DA
:1027D000DEB7CA1BDB0B0FB6F894DEBF0FBECDBF52
:1027E00009942A88398848885F846E847D848C8423
:1027F0009B84AA84B984C884DF80EE80FD800C812C
:102800001B81AA81B981CE0FD11D0FB6F894DEBF0E
:102810000FBECDBFED010895A1E21A2EAA1BBB1B6E
:10282000FD010DC0AA1FBB1FEE1FFF1FA217B3079C
:10283000E407F50720F0A21BB30BE40BF50B661FB2
:10284000771F881F991F1A9469F760957095809576
:1028500090959B01AC01BD01CF010895A29FB001ED
:10286000B39FC001A39F700D811D1124911DB29FC4
:10287000700D811D1124911D0895991B79E004C0EC
:10288000991F961708F0961B881F7A95C9F78095AF
:102890000895EE0FFF1F0590F491E02D09940F931A
:1028A0001F93CF93DF938230910510F482E090E084
:1028B000E0913E04F0913F0430E020E0B0E0A0E081
:1028C000309799F42115310509F44AC0281B390BBA
:1028D00024303105D8F58A819B816115710589F114
:1028E000FB0193838283FE0111C0408151810281EB
:1028F000138148175907E0F04817590799F41097C2
:1029000061F012960C93129713961C933296CF0196
:10291000DF91CF911F910F91089500933E04109382
:102920003F04F4CF2115310551F04217530738F019
:10293000A901DB019A01BD01DF01F801C1CFEF015F
:10294000F9CF90933F0480933E04CDCFFE01E20F78
:10295000F31F819391932250310939832883D7CF74
:1029600020913C0430913D04232B41F420911D0122
:1029700030911E0130933D0420933C0420911B01B3
:1029800030911C012115310541F42DB73EB740911E
:102990001F0150912001241B350BE0913C04F09164
:1029A0003D04E217F307A0F42E1B3F0B281739074D
:1029B00078F0AC014E5F5F4F2417350748F04E0F9B
:1029C0005F1F50933D0440933C04819391939FCFAC
:1029D000F0E0E0E09CCFCF93DF930097E9F0FC01BB
:1029E000329713821282A0913E04B0913F04ED0110
:1029F00030E020E01097A1F420813181820F931FF5
:102A000020913C0430913D042817390709F061C03A
:102A1000F0933D04E0933C04DF91CF910895EA01E7
:102A2000CE17DF07E8F54A815B819E01411551050C
:102A3000B1F7E901FB83EA8349915991C40FD51F8E
:102A4000EC17FD0761F4808191810296840F951F38
:102A5000E90199838883828193819B838A83F0E053
:102A6000E0E012968D919C9113970097B9F52D9106
:102A70003C911197CD010296820F931F20913C0447
:102A800030913D042817390739F6309751F51092E7
:102A90003F0410923E04B0933D04A0933C04BCCF8D
:102AA000D383C28340815181840F951FC817D907F2
:102AB00061F44E5F5F4F88819981480F591F5183A0
:102AC00040838A819B81938382832115310509F09C
:102AD000B0CFF0933F04E0933E049ECFFD01DC01B4
:102AE000C0CF13821282D7CFB0E0A0E0EAE7F5E1D1
:102AF0000C94D7138C01009751F4CB010E944F1412
:102B00008C01C801CDB7DEB7E0E10C94F313FC01F2
:102B1000E60FF71F9C0122503109E217F30708F472
:102B20009DC0D901CD91DC911197C617D70798F0B8
:102B3000C530D10530F3CE0104978617970708F307
:102B4000C61BD70B2297C193D1936D937C93CF0172
:102B50000E94EB14D6CF5B01AC1ABD0A4C018C0E5F
:102B60009D1EA0913E04B0913F04512C412CF12CAC
:102B7000E12C109731F580913C0490913D0488152B
:102B8000990509F05CC04616570608F058C08091B8
:102B90001B0190911C01009741F48DB79EB74091A5
:102BA0001F0150912001841B950BE817F90708F0CD
:102BB00055C0F0933D04E0933C04F90171836083B8
:102BC000A0CF8D919C91119712966C9012971396AD
:102BD0007C901397A815B90559F56C0142E0C40E15
:102BE000D11CCA14DB0420F1AC014A195B09DA01DB
:102BF0001296159780F06282738251834083D901C7
:102C00006D937C93E114F10471F0D7011396FC935A
:102C1000EE93129776CF22968C0F9D1FF901918328
:102C20008083F301EFCFF0933F04E0933E0469CF3C
:102C30004816590608F42C017D01D3019ACFCB0127
:102C40000E944F147C01009749F0AE01B8010E9428
:102C50003E16C8010E94EB14870153CF10E000E03C
:102C600050CFFB01DC0104C08D910190801921F44B
:102C700041505040C8F7881B990B0895FB01DC01B7
:102C800002C001900D9241505040D8F70895FB01C9
:102C9000DC0101900D920020E1F70895F894FFCF38
:102CA0004357DC2757025C0200A34C8A1464026974
:102CB000020001BD26267102770200000040048058
:102CC000000000400014005400000000005D0130CE
:102CD0000176060601290116010701000000004ADD
:102CE00003AA02D702B2030803E602FA02000000B8
:102CF00000FD07A207D20300000000AD09AA02767A
:102D00000675060D0A005363616E20796F75722097
:102D10005246494400536C6F743A20002F00506CA7
:102D2000617465204E756D6265723A2000456E745F
:102D30006572696E672E2E2E007B22616374696F47
:102D40006E223A226C6F67696E222C226964223AE5
:102D500022003000222C226E616D65223A22002270
:102D60002C22706C617465223A2200227D00506131
:102D7000726B696E672046756C6C00457869746982
:102D80006E672E2E2E007B22616374696F6E223A6D
:102D9000226C6F676F7574222C226964223A2200BC
:102DA000556E617574686F72697A656400556E61FD
:102DB0007574686F72697A656420636172642073E8
:102DC00063616E6E65642E00496E76616C69642085
:102DD0004361726400556E737570706F72746564D0
:102DE00020554944206C656E677468207072657365
:102DF000656E7465642E004B696E6F0057514620F6
:102E00003739350049737461004B424820353135FC
:102E100000596F67736F00594857203336390000E7
:00000001FF
